S00B0000746573742E6D6F74B6
S10700005310FFFF97
S1130004660F0F0F0F0F0F0F0F0F0F0F0F0F0F0FA1
S11300140F0F0F0F0F0F0F0F0F0FB70B0F0F0F0F44
S11300240F0F0F0F0F0F0F0FDD0EED0E0F0F0F0F2E
S11300340F0F0F0F0F0F0F0F0F0F0F0F0F0F0F0FC8
S11300440F0F0F0F0F0F0F0F0F0F0F0F0F0F0F0FB8
S11300540F0F0F0F0F0F0F0F0F0F0F0F0F0F0F0FA8
S11300640F0F0F0F0F0F0F0F0F0F0F0F0F0F0F0F98
S10F00740F0F0F0F0F0F0F0F0F0F0F0FC8
S10700C0FEFFE8044F
S10D00C4000000000000000000002E
S11300D8F6BF02F700AF02F7BDF2A804BDF0ADF217
S11300E846F071FF7177F161D8ECDD0000D7200884
S11300F8C9F005FFADF0BDF2FAF2719300C9F0033F
S1130108FFADF0BDF2FAF28B3169317A9DF04AF015
S11301180161F8EC050100F6BF02F700C9F003FF1E
S1130128ADF0BDF2FAF28B3169317A9DF0D4F06109
S1130138F8EC240100AF02F7BDF0B80644F40171ED
S1130148FF61E3EC530100FC6A01003004F7B800D6
S113015830204CB802A806BDF0B804FCD710001033
S113016808D72002301400B800FCD80000C9F005F4
S1130178FFADF0BDF2FAF27192303C00B800FCD841
S11301880000C9F005FFADF0BDF2FAF27193FC9DD1
S113019801001002D7200AF19809E198085108983B
S11301A807FC580F00EC4C0200ECB90100F6BF0242
S11301B8F7C9F003FFADF0BDF2FAF28B3169317A79
S11301C89DF04AF00161F8ECB50100300300B80075
S11301D8FCD80000C9F202FFC9F002FFADF0BDF47B
S11301E8FAF48B3159317A9DF07AF0015AF001AD65
S11301F8F2BDF4FAF47104F071A1C9F003FFADF093
S1130208BDF2FAF28B3169317A9DF04AF00161E866
S1130218EC2502008808728809616A9809880861CF
S113022801980888079DF091980700C9F003FFAD6D
S1130238F0BDF4FAF48B3169317A9DF0D4F061F8A9
S1130248EC3302008807D161E8ECB1010088099D0C
S1130258F09800FC8302008809318EBDF03004F761
S1130268B800302D4CB802ADF0B804FCD7100030FB
S113027804F7B800FCAA0700100AD7200288064C25
S11302883361E8ECCA0200FC0D0700303A4CB800B0
S1130298FCAA0700C9F202FFC9F002FFADF0BDF4E1
S11302A8FAF48B3169317A9DF07AF0015AF001AD94
S11302B8F2BDF4FAF47104F07191FC970500EC9422
S11302C8050088064C3461E8EC060300FC0D0700C1
S11302D8FCE00500C9F202FFC9F002FFADF0BDF46D
S11302E8FAF48B3159317A9DF07AF0015AF001AD64
S11302F8F2BDF4FAF47104F071A1EC9405008806D7
S11303084C3561E8EC420300FC0D0700FCED0500E8
S1130318C9F202FFC9F002FFADF0BDF4FAF48B3163
S113032849317A9DF07AF0015AF001ADF2BDF4FA40
S1130338F47104F071B1EC94050088064C3661E858
S1130348EC7C0300FC0D0700FCFA0500C9F20EFF63
S1130358C9F00EFFADF0BDF4FAF48B317A9DF07A52
S1130368F0015AF001ADF2BDF4FAF47104F071F140
S1130378EC94050088064C3761E8ECB60300FC0DE4
S11303880700FC070600C9F201FFC9F001FFADF040
S1130398BDF4FAF48B5C019DF07AF0015AF001ADDA
S11303A8F2BDF4FAF47104F07181EC940500880646
S11303B84C3861E8ECF20300FC0D0700FC1406005D
S11303C8C9F201FFC9F001FFADF0BDF4FAF48B31B5
S11303D869317A9DF07AF0015AF001ADF2BDF4FA70
S11303E8F47104F07191EC94050088064C3961E8C5
S11303F8EC080400FC0D0700FC210600EC94050041
S113040888064C3A61E8EC230400FC0D07003067C9
S11304184CB800FCAA0700EC94050088064C3B6124
S1130428E8EC390400FC0D0700FC2E0600EC9405EA
S11304380088064C3C61E8EC4F0400FC0D0700FC06
S1130448970600EC94050088064C3D61E8EC6504C9
S113045800FC0D0700FCBD0600EC94050088064C62
S11304683E61E8EC840400FC0D0700FCE50600305E
S1130478864CB800FCAA0700EC94050088064C5387
S113048861E8EC9B040030964CB800FCAA0700EC29
S113049894050088064C5461E8ECB2040030AB4C77
S11304A8B800FCAA0700EC94050088064C5561E8DE
S11304B8ECC9040030C24CB800FCAA0700EC94054F
S11304C80088064C5661E8ECE0040030DA4CB800C9
S11304D8FCAA0700EC94050088064C5761E8ECF781
S11304E8040030F24CB800FCAA0700EC940500881C
S11304F8064C5861E8EC0E0500300A4DB800FCAA19
S11305080700EC94050088064C6361E8EC250500B7
S1130518301F4DB800FCAA0700EC94050088064C6F
S11305286461E8EC3C050030344DB800FCAA0700CF
S1130538EC94050088064C6561E8EC530500304BE3
S11305484DB800FCAA0700EC94050088064C6661C7
S1130558E8EC6A050030634DB800FCAA0700EC9487
S1130568050088064C6761E8EC810500307B4DB8CE
S113057800FCAA0700EC94050088064C6861E8ECC6
S113058894050030934DB800FCAA07001002D7C99F
S1130598F002FFADF0BDF2FAF27183C9F001FFADCC
S11305A8F0BDF2FAF271F3C9F003FFADF0BDF2FA4F
S11305B8F27183C9F001FFADF0BDF2FAF271D3C94B
S11305C8F001FFADF0BDF2FAF271E3C9F00CFFAD32
S11305D8F0BDF2FAF27182D7C9F00CFFADF0BDF2AA
S11305E8FAF27183D7C9F002FFADF0BDF2FAF271E5
S11305F882D7C9F001FFADF0BDF2FAF271F2D7C9A2
S1130608F003FFADF0BDF2FAF27182D7C9F001FF31
S1130618ADF0BDF2FAF271D2D7C9F001FFADF0BD69
S1130628F2FAF271E2D72002C9F00CFFADF0BDF284
S1130638FAF28B3169317A9DF0D4F061E8EC520614
S11306480030A84DB800FCAA0700C9F00CFFADF0B3
S1130658BDF2FAF28B3159317A9DF0D4F061E8ECAD
S113066874060030C14DB800FCAA0700C9F00DFF9C
S1130678ADF0BDF2FAF28B317A9DF0D4F061E8EC7A
S113068894060030DA4DB800FCAA07001002D720FF
S113069802C9F00DFFADF0BDF2FAF28B317A9DF08C
S11306A84AF00161E8ECBA060030F14DB800FCAA42
S11306B807001002D72002C9F00CFFADF0BDF2FA12
S11306C8F28B3169317A9DF04AF00161E8ECE20677
S11306D80030084EB800FCAA07001002D72002C94F
S11306E8F00CFFADF0BDF2FAF28B3159317A9DF07E
S11306F84AF00161E8EC0A070030214EB800FCAA70
S113070807001002D7200651529803E198055108B2
S11307189804EC92070000C9F003FFADF0BDF2FAAB
S1130728F28B3169317A9DF04AF00161F8EC1F07C8
S1130738008805728803615A9DF0D4F061E8EC568C
S11307480700C9F005FFADF0BDF2FAF27192880511
S113075861019805302300B800FCD80000C9F005F1
S1130768FFADF0BDF2FAF2719300C9F003FFADF0EA
S1130778BDF2FAF28B3169317A9DF0D4F061F8EC6C
S113078872070088049DF09198048804D161E8EC0C
S11307981E0700C9F005FFADF0BDF2FAF27193101F
S11307A806D72004A808BDF0B800FCB11000ADF0CD
S11307B8B802ECD80700A808BDF0BDF2FAF28B9D88
S11307C8F0F4F1ADF0B800FCF30700A808A1B808EC
S11307D8A808BDF0BDF2FAF28B9DF0D4F061E8EC04
S11307E8BE07001004D7E6BF1AF7D7C9F010FF8870
S11307F8049DF2ADF0BDF4EAF48DF29900AF1AF756
S1130808BDF044010061E8EC050800F6BF1AF7D70B
S1130818C9F0A0FFADF0BDF2EAF2F199C9F0A1FF69
S1130828ADF0BDF2FAF271F2C9F0A4FFADF0BDF279
S1130838FAF271C3C9F0F300ADF0BDF2EAF2F1992E
S1130848C9F0A1FFADF0BDF2FAF27183D72002C955
S1130858F0A8FFADF0BDF2FAF28B9DF098011002FA
S1130868D7C9F001FFADF0BDF2EAF2F199C9F0027F
S1130878FFADF0BDF2EAF2F199C9F003FFADF0BDA6
S1130888F2EAF2F199C9F005FFADF0BDF2EAF2F12E
S113089899C9F00CFFADF0BDF2EAF2F199C9F00E76
S11308A8FFADF0BDF2EAF2F199C9F06C00ADF0BD0C
S11308B8F2EAF251FE99C9F06E00ADF0BDF2EAF227
S11308C8517F99C9F07600ADF0BDF2EAF2E199C919
S11308D8F021FFADF0BDF2EAF2511C99C9F022FFF4
S11308E8ADF0BDF2EAF251F099C9F023FFADF0BDC5
S11308F8F2EAF251FE99C9F025FFADF0BDF2EAF231
S113090851FD99C9F02CFFADF0BDF2EAF251FE9900
S1130918C9F02EFFADF0BDF2EAF2517F99D7C9F0C4
S1130928F000ADF0BDF2FAF271A200000000C9F0C7
S11309382601ADF0BDF2EAF2E6B9FC470900D7C9D1
S1130948F22401C9F02401ADF0BDF4FAF4ABBDF012
S11309586AF001ADF2BDF4EAF4ADF0B9C9F0E5FF0F
S1130968ADF0BDF2FAF271D2C9F0E1FFADF0BDF419
S1130978FAF471D3C9F0E5FFADF0BDF2FAF271E211
S1130988C9F0E1FFADF0BDF4FAF471E3C9F0E5FF95
S1130998ADF0BDF2FAF271F2C9F0E1FFADF0BDF4C9
S11309A8FAF471F3C9F0EDFFADF0BDF2FAF271D2C9
S11309B8C9F0E9FFADF0BDF4FAF471D2C9F0100141
S11309C8ADF0BDF2EAF2302200B9C9F01801ADF079
S11309D8BDF4EAF4309780B9C9F010FFADF0BDF268
S11309E8EAF2300088B9C9F22801C9F02801ADF04B
S11309F8BDF4FAF4ABBDF06AF001ADF2BDF4EAF46B
S1130A08ADF0B9C9F23401C9F03401ADF0BDF4FA5E
S1130A18F4ABBDF0ADF2BDF4EAF4ADF0B9C9F22A15
S1130A2801C9F02A01ADF0BDF4FAF4ABBDF06AF0E7
S1130A3801ADF2BDF4EAF4ADF0B9C9F201FFC9F0B1
S1130A4801FFADF0BDF4FAF48B9DF06AF004ADF249
S1130A58BDF4EAF48DF099C9F221FFC9F021FFAD84
S1130A68F0BDF4FAF48B9DF05AF0FBADF2BDF4EA54
S1130A78F48DF099D7C9F22801C9F02801ADF0BD69
S1130A88F4FAF4ABBDF06AF001ADF2BDF4EAF4ADEA
S1130A98F0B9C9F22A01C9F02A01ADF0BDF4FAF49B
S1130AA8ABBDF06AF001ADF2BDF4EAF4ADF0B9C93A
S1130AB8F22201C9F02201ADF0BDF4FAF4ABBDF0A5
S1130AC86AF001ADF2BDF4EAF4ADF0B9C9F0E1FFA2
S1130AD8ADF0BDF2FAF271D3C9F0E5FFADF0BDF4A3
S1130AE8FAF471D3D7C9F0E5FFADF0BDF2FAF271AB
S1130AF8D2C9F22401C9F02401ADF0BDF4FAF4AB73
S1130B08BDF06AF001ADF2BDF4EAF4ADF0B9C9F292
S1130B182A01C9F02A01ADF0BDF4FAF4ABBDF05ACC
S1130B28F0FEADF2BDF4EAF4ADF0B9C9F0E1FFAD01
S1130B38F0BDF2FAF271D3D72002F6B800A808443F
S1130B48000061E8EC590B00308100B800ECB00BF0
S1130B5800A806BDF0BF22F7A808BDF0BF1CF7C95E
S1130B68F0E5FFADF0BDF2FAF271D2C9F210FFAFB1
S1130B7822F7BDF0BDF4FAF48B9DF0ADF2BDF4EAB2
S1130B88F48DF099AF22F7BDF0A6F0ADF0BF22F7CF
S1130B98AF1CF7BDF0B6F0ADF0BF1CF7C9F0E5FF28
S1130BA8ADF0BDF2FAF271D3A800BDF01002D7611E
S1130BB8CFC1C3C5C761DFC1C3C5C761CFFCEE07D9
S1130BC80061DFC6C4C2C061CFC6C4C2C061FCD75D
S1130BD8C9F0F000ADF0BDF2FAF27182C9F0B601C5
S1130BE8ADF0BDF4EAF4303000B9C9F0B401ADF0A9
S1130BF8BDF2EAF230FF0AB9C9F0E6FFADF0BDF480
S1130C08FAF471C2C9F0E2FFADF0BDF2FAF271C3B1
S1130C18C9F0E6FFADF0BDF4FAF471D2C9F0E2FF11
S1130C28ADF0BDF2FAF271D3C9F0E5FFADF0BDF451
S1130C38FAF471F2C9F0E1FFADF0BDF2FAF271F322
S1130C48C9F0E6FFADF0BDF4FAF471E2C9F0E2FFD1
S1130C58ADF0BDF2FAF271E3C9F0E6FFADF0BDF410
S1130C68FAF471F2C9F0E2FFADF0BDF2FAF271F3F1
S1130C78C9F0E6FFADF0BDF4FAF471A2C9F0E2FFE1
S1130C88ADF0BDF2FAF271A3C9F0E7FFADF0BDF41F
S1130C98FAF471F2C9F0E3FFADF0BDF2FAF271F3C0
S1130CA8C9F0D4FFADF0BDF4FAF47182C9F0D0FFF5
S1130CB8ADF0BDF2FAF27183C9F0D4FFADF0BDF422
S1130CC8FAF47192C9F0D0FFADF0BDF2FAF2719363
S1130CD8C9F0D4FFADF0BDF4FAF471A2C9F0D0FFA5
S1130CE8ADF0BDF2FAF271A3C9F0EEFFADF0BDF4B8
S1130CF8FAF471C2C9F0EAFFADF0BDF2FAF271C2BA
S1130D08C9F0EEFFADF0BDF4FAF471D2C9F0EAFF10
S1130D18ADF0BDF2FAF271D2C9F09001ADF0BDF4B4
S1130D28EAF4300080B9C9F018FFADF0BDF2EAF278
S1130D38303F9CB9C9F2B801C9F0B801ADF0BDF4AF
S1130D48FAF4ABBDF05AF0FEADF2BDF4EAF4ADF03E
S1130D58B9C9F2BA01C9F0BA01ADF0BDF4FAF4ABFD
S1130D68BDF05AF0FEADF2BDF4EAF4ADF0B9C9F045
S1130D789201ADF0BDF2EAF2F6B9C9F01AFFADF08E
S1130D88BDF4EAF4301F00B9C9F2BE01C9F0BE01CE
S1130D98ADF0BDF4FAF4ABBDF05AF0FDADF2BDF41C
S1130DA8EAF4ADF0B9C9F2BC01C9F0BC01ADF0BDBB
S1130DB8F4FAF4ABBDF05AF0FDADF2BDF4EAF4ADCB
S1130DC8F0B9C9F2B801C9F0B801ADF0BDF4FAF44C
S1130DD8ABBDF05AF0FDADF2BDF4EAF4ADF0B9C91B
S1130DE8F2BA01C9F0BA01ADF0BDF4FAF4ABBDF042
S1130DF85AF0FDADF2BDF4EAF4ADF0B9D7C9F0E2AA
S1130E08FFADF0BDF2FAF271C3C9F0E6FFADF0BD73
S1130E18F4FAF471C3C9F2B201C9F0B201ADF0BD7C
S1130E28F4FAF4ABBDF06AF001ADF2BDF4EAF4AD46
S1130E38F0B9D7C9F2B401C9F0B401ADF0BDF4FA00
S1130E48F4ABBDF06AF001ADF2BDF4EAF4ADF0B96B
S1130E58C9F0E6FFADF0BDF2FAF271C2C9F0E2FFE3
S1130E68ADF0BDF4FAF471C3D7C9F0E2FFADF0BD3B
S1130E78F2FAF271D3C9F0E6FFADF0BDF4FAF471F9
S1130E88D3C9F2B201C9F0B201ADF0BDF4FAF4ABC2
S1130E98BDF06AF002ADF2BDF4EAF4ADF0B9D7C919
S1130EA8F2B401C9F0B401ADF0BDF4FAF4ABBDF08D
S1130EB86AF002ADF2BDF4EAF4ADF0B9C9F0E6FFA8
S1130EC8ADF0BDF2FAF271D2C9F0E2FFADF0BDF4B3
S1130ED8FAF471D3D761CFC1C3C5C7E6BF28F7C633
S1130EE8C4C2C061FC61CFC1C3C5C761DFC161CFE2
S1130EF8AF02F7BDF0A6F0ADF0BF02F761DFC06145
S1130F08CFC6C4C2C061FC61CFC1C3C5C7C6C4C211
S1130F18C061FCC9F0E4FFADF0BDF2FAF27182C918
S1130F28F0E0FFADF0BDF2FAF27183C9F0ECFFAD69
S1130F38F0BDF2FAF27182C9F0E8FFADF0BDF2FA41
S1130F48F27182C9F0E4FFADF0BDF2FAF27183D711
S1130F58C9F0ABFFADF0BDF2EAF251AC99D761CF5D
S1130F68C1C3C5C7C6C4C2C061FCC9F07700ADF02F
S1130F78BDF2EAF2F199FC550800FC180800FC6976
S1130F880800FC260900FCD80B00FC1B0F00C9F064
S1130F987800ADF0BDF2EAF2F199D72002717BFA3C
S1130FA8FC720F00E6B800BDF01002D72006FC4121
S1130FB81000303A4EB800FCAA0700AF28F7BDF07D
S1130FC844010061E8EC3D1000F6BF28F7AF00F7D4
S1130FD8BDF0A6F0ADF0BF00F7BDF044320061E803
S1130FE8EC3D1000F6BF00F7C9F202FFC9F002FF9A
S1130FF8ADF0BDF4FAF48B3169317A9DF07AF001E1
S11310085AF001ADF2BDF4FAF47104F07191AF260F
S1131018F7BDF03004F7B800304A4EB802ADF0B866
S113102804FCD71000AF26F7BDF0A6F0ADF0BF263C
S1131038F7FCF60000ECC30F00717AFAFC050E0009
S1131048FC710E00FC7D0A00D75310CBF8DCFE417E
S11310580061CF34D8003600F761DF3600F730007E
S1131068F727311E440000DD0EB161CF11A9BBA5DD
S1131078A5A7A761DFEFED61CF3600F73000006167
S1131088DF302AF727311E440000DD0AB161CFBBE7
S1131098A7A761DFEFF161CFFCA30F0000300000C8
S11310A8C1C1C1FCB40F00EFFEA804121489D1DD3C
S11310B803A5EFF91523BDF0D7A806BDF2FAF2ABE4
S11310C8BDF0DAF2A1780000ADF014880499D720B5
S11310D808A80EB80030C110B802AEF8040C00B865
S11310E804AEF8040C00040400B806FD0111A80CB1
S11310F8BDF2EAF2F1991008D761EFC1C3C561CF17
S113110820FE2054AEF8045C0116ABBDF0AEF80422
S1131118620116ABBDEAF6B822ADF0A1B834ADF061
S1131128168B9DF24AF225DD2AD4F261F8ED611E90
S11311388DF29800AEF804600116ABB802AEF8045C
S11311485E0116AB1661FAFBF8FF617922A834BD7B
S1131158F0EFC6EAF08A014C25DD0BF1983F9DE9D2
S11311689DF3983EEF31ADF0040200B83451259850
S113117800AEF804600116ABB802AEF8045E0116BE
S1131188AB16EFC14AF22B61D31A4AF22DDF23A41E
S1131198F3FBF8FF617934A834168B9DF24AF22BDD
S11311A8DFE2EF244AF220DD164AF223DF20A4E925
S11311B8EFDF4AF230DF17FBF8FF61593FEFD288BF
S11311C83ED1DFCD5120EF02512B983EEFC38DE97C
S11311D898C38DF398C2A834BDF04AF22ADD03F609
S11311E8EF2AADEA040200BDF4FAEAABBDF6B8266C
S11311F844000071FFDE0AF626F6B8268DF38198BE
S1131208C2A834A1BDF0ADF4BDEAEF2DB826ADF007
S1131218168B9DF20CD09DF34AF30961C31BA826D3
S1131228320A00FD803FBDF4A6F08DF2318E04D061
S1131238FFBDF2ADF406F2EFD388C2D1DD03F19815
S11312483FADF014894C2EDF49EAF08A014C2ADDBF
S113125805A6F0F6EF0FFAEAABB818A6F0A6F0A6C2
S1131268EAA6EAEF32B818ADF0168B9DF20CD09DC1
S1131278F34AF30961C320A818320A00FD803FBD70
S1131288F4A6F08DF2318E04D0FFBDF2ADF406F26F
S1131298EFD330FFFFB818ADF0168B9DF2ADF0A177
S11312A8BDF44AF268DD124AF26CDD054AF24CDFFD
S11312B80AADF4BDF0E4F2EF04BDF0F4F2ADF0A130
S11312C8B834ADF0168B9DE84AE86661F8EDEF1581
S11312D84AE86661C35E4AE85861F8ED3D144AE895
S11312E85861C31E4AE84561F8ED04164AE84761A7
S11312F8F8EDDF15D4E861E8ED491DADF0B834ED3B
S1131308491D4AE86461F8ED70144AE86461F3ED34
S113131804164AE86361E8ED491DFAEA8B98CCA6FD
S1131328EAA6EAAEF8BDF404CD00BDECADF404CCF5
S113133800ED501D4AE86F61F8ED26144AE86F6124
S1131348C3184AE86961F8ED70144AE86EDD484A42
S1131358E86761E8ED491DEDDF154AE873DD694A80
S1131368E87361C31F4AE87061E8ED491DFAEAAB06
S1131378B81E317B98209821A6EAA6EA30644EB8B4
S11313881AED6B144AE87561F8ED3D144AE8786182
S1131398F8ED441EED491DADEA040200BDF4FAEA75
S11313A8ABBDF0A822D4F2DD10BDF2ADF014ADF25D
S11313B8B9317B9A029A03EF08BDF2ADF014ADF28D
S11313C8B9ADF4BDEAED5511ADEA040200BDF2FA77
S11313D8EAABBDEC440000DF04C9EC554EA8184440
S11313E8000071FFDE05301027B818C9F00000AD01
S11313F8ECA1BDF4EAEC89D1DD17A818BDF6ADF06F
S113140846F671FF7177F7DE08A6F0ADF4BDECEF90
S1131418DEADEC26F0B81CADF2BDEAED521DD4E900
S113142861F8ED441EA81844000061E8ED441EE686
S1131438B818ED441E30644EB81AFAEAABB81ED494
S1131448F2DD0DAC02B820ADEA040400BDEAEF09F0
S1131458F198209821A6EAA6EA4AE86FDD4E4AE800
S113146875DD56301000EF47FAEAABB81ED4F2DD4A
S11314780DAC02B820ADEA040400BDEAEF0A317BE2
S113148898209821A6EAA6EA882171FCDE30A820D3
S113149812A81EFD2B3EB81E13B82030644EB81A8D
S11314A8300A00B828F6B82A512DEF09300800B8D8
S11314B828F6B82AF1983EEF12300A00EFF13064AA
S11314C84EB81A300A00B828F6B82AE4F2A820441C
S11314D80000A81E61F8440000DF02F4F2AEF8042C
S11314E85101BDECA818440000DF0AADECBDF0D4EE
S11314F8F2DD74EF04ADECBDF0B6F0A82AC1A82A59
S1131508C1A82412A822FD913B1004BDF413BDF612
S1131518A81A06F4BDF4ADF014FAF48B99A82AC1FC
S1131528A82AC1A82412A822FD703B1004BDF413F4
S1131538BDF6ADF4B81EADF6B820ADF6440000AD66
S1131548F461F8440000DFB1A81844000071FFDE1C
S113155816883FD1DD11883ED1F4F461E8E4F4F44F
S1131568F5A82626F4B818ADEC26F0BDF4A818465C
S1131578F471FF7177F561D30AB6F0ADF014513008
S113158899EFE4ADF0B81CD4E961F8ED521DD4F23A
S113159861F8ED521D8DE85CDF9DF24AF258DF15C3
S11315A8ADF0B1148DE899ADF004FEFFB81CADF0B0
S11315B804FEFFEF1B4AE86F61E8ED521DADF0141D
S11315C8894C3061F8ED521DADF0B1B81CADF0B1E5
S11315D814513099ED521D8DE80CFE9DE8A818446D
S11315E80000DD29E6EF16A4F2A81844000071FFF4
S11315F861D8ED541EF6B824F4E8EF16F6B824A81A
S11316081844000071FFDE0A300600EF03E6B82430
S1131618B818D4F2DD37ADEA040400BDECFAEAAB3D
S1131628B800AC02B802FD711EADF0B840ADF2B816
S113163842ADF4B844ADF6B846ADF0B810A842B817
S113164812A844B814A846B816ADECEF16FAEAABDB
S1131658B810AC02B812AC04B814AC06B816ADEAAB
S1131668040800BDEAF6B882F6B884F6B886F6B877
S113167888A810B800A812B802A814B804A816B804
S113168806A882B808B80AB80CB80EFD80378DF0E1
S1131698D171FFDE368810982C8811982D881298FD
S11316A82E8813982F88149830881598318816989E
S11316B83288170C809833A82CB810A82EB812A812
S11316C830B814A832B816512D983EAEF804CC00A0
S11316D8BDF6A82606F6B81CF6B88AF6B88CF6B88D
S11316E88E30F03FB890A810B800A812B802A81419
S11316F8B804A816B806A88AB808B80AB80C30F00E
S11317083FB80EFDDD368DF0D171FF61D8ED281894
S1131718F6B81AF6B8923000E0B894307648B8961D
S1131728303742B898A810B800A812B802A814B85C
S113173804A816B806A892B808A894B80A30764837
S1131748B80C303742B80EFDDD368DF0D171FFDCB0
S11317584DA810B800A812B802A814B804A816B85E
S113176806F6B808300020B80A305FA0B80C30027A
S113177842B80EFDD931ADF0B848ADF2B84AADF46F
S1131788B84CADF6B84EADF0B810ADF2B812A84CDE
S1131798B814A84EB816A81A040A00ED1917F6B812
S11317A89AF6B89CF6B89E302440B8A0A810B800A1
S11317B8A812B802A814B804A816B806A89AB808B3
S11317C8B80AB80C302440B80EFDDD368DF0D1715E
S11317D8FF61D8ED6719A810B800A812B802A814B8
S11317E8B804A816B806F6B808F6B80AF6B80C305D
S11317F82440B80EFDD931ADF0B850ADF2B852ADB1
S1131808F4B854ADF6B856ADF0B810ADF2B812ADA0
S1131818F4B814ADF6B816FBF8FF61791AEDA617FB
S1131828F6B8A2F6B8A4F6B8A6F6B8A8A810B800F0
S1131838A812B802A814B804A816B806A8A2B8082A
S1131848B80AB80CB80EFD3B36F6B81AD4F061F8ED
S1131858ED6719F6B8AA3000E0B8AC30DF7CB8AE52
S113186830DB3DB8B0A810B800A812B802A814B864
S113187804A816B806A8AAB808A8ACB80A30DF7C29
S1131888B80C30DB3DB80EFD22388DF0D171FF6104
S1131898C34FA810B800A812B802A814B804A81610
S11318A8B806F6B808300020B80A305FA0B80C3083
S11318B80242B80EFD1F28ADF0B858ADF2B85AADC3
S11318C8F4B85CADF6B85EADF0B810ADF2B812ADD0
S11318D8F4B814ADF6B816A81A04F6FFB81AED5BF6
S11318E818F6B8B2F6B8B4F6B8B630F03FB8B8A837
S11318F810B800A812B802A814B804A816B806A804
S1131908B2B808B80AB80C30F03FB80EFD80378D6D
S1131918F0D171FFDE49A810B800A812B802A814C3
S1131928B804A816B806F6B808F6B80AF6B80C301B
S11319382440B80EFD1F28ADF0B860ADF2B862AD12
S1131948F4B864ADF6B866ADF0B810ADF2B812A844
S113195864B814A866B816FBF8FF61891AEF82A860
S113196824440000DD2CA818BDF0A81A46F071FF25
S11319787177F1DE1344FCFF71FF71C0DC0AA81A09
S113198812ADF023B818F4E8FBF8FF618918D4E91C
S1131998DD04F4E9EF05E198C39DE9D4E861E8EDD5
S11319A8451AA81A44000071FF61C8ED381AAEF848
S11319B804CC00BDF2A82606F214513099A81844A4
S11319C80000DF1088C3D1DF0BA81CA1BDECC9F04F
S11319D80000EF16A81C040200BDECA81CBDF6A666
S11319E8F6EAF6512E99A818BDF0C9F20000B6F22D
S11319F8A81ABDF4ADF246F471FF7177F561D312FC
S1131A08ADF0440000DD0BEAEC513099B6F0A6ECD9
S1131A18EFDCA8187CFF7AF8FFBDF4A81A46F47125
S1131A28FF7177F561D8ED4A1EADF0B818E6EF12EC
S1131A38A81A12F623B878A81CBDECEF07A81CBD99
S1131A48ECF6B878ADECB824A818BDF0A87846F040
S1131A5871FF7177F161F3ED6C1BA810B800A8123F
S1131A68B802A814B804A816B806FDE339ADF0B84E
S1131A78C4ADF2B8C6ADF0BDF6B8C888C5317B9818
S1131A88CA98CBADF6B800A8CAB802FDC438ADF000
S1131A98B868ADF2B86AADF4B86CADF6B86EA81013
S1131AA8B800A812B802A868B808A86AB80AA86C46
S1131AB8B80CA86EB80EFD5527ADF0B836ADF2B81F
S1131AC838ADF4B83AADF6B83CADF0BDF4B87AAD7B
S1131AD8F2BDF6B87CA83ABDF0B87EA83CBDF2B811
S1131AE880ADF4B800ADF6B802ADF0B804ADF2B804
S1131AF806F6B808F6B80AF6B80C302440B80EFD55
S1131B081F28ADF0B870ADF2B872ADF4B874ADF684
S1131B18B876ADF0B810ADF2B812A874B814A876B7
S1131B28B816A824A1BDF0A8241288C40C30480013
S1131B3800A878A1BDF2A878440000DF1EA81844C4
S1131B480000DF0588C3D1DD12A824040200BDF01B
S1131B58A824BDF6A6F6EAF6512E99ADF2B878ADEA
S1131B68F0ED4E1AA824BDECF6B8BAF6B8BCF6B82F
S1131B78BE301440B8C0A810B800A812B802A814FF
S1131B88B804A816B806A8BAB808B80AB80C301425
S1131B9840B80EFDDD368DF0D171FF61D8ED481CDB
S1131BA8ADECB1BDF0E6B818ADF0168B9DF24AF273
S1131BB82EDD19728818610A9DF24AF23ADD049BF7
S1131BC8F6EF07ADF014513099E6B818ADF0B1BD91
S1131BD8F2A81C46F0DE06ADF2BDF0EFCBA818441F
S1131BE80000DD5CA824D4E8DD31BDF0A81C46F073
S1131BF8DE21ADF0B1168B9DF2ADF04AF22EDF0B6B
S1131C081404FEFF168B99B6F0EF04148DF299B6FE
S1131C18F0EFD9FBF8FF61791AEF16A1BDECBDF01E
S1131C28A81C46F0DE0BADF014B1168B99B6F0EF94
S1131C38EFAEF804CC00BDF4A82606F4145131998B
S1131C48D4E9DD22ADECBDF0ADF0B1168B9DF24ABE
S1131C58F230DF04B6F0EFF0ADF0BDEC4AF22EDF5F
S1131C6805ADF0B1BDECD4E861F8ED111DEAEC8DD9
S1131C78E899ADEC040200BDF0A81AEAEC440000AF
S1131C8871FFDE0D512D9A01A81A12F623B81AEF26
S1131C9804512B9A01ADF0040A00BDECC9F0000010
S1131CA8A6F0ADF0BDE8ADECA1BDF4A81A320A0067
S1131CB8FD443B33BDF633BDF2DAEC8DF60C304807
S1131CC80000ADF2B81AADF2440000DD06ADF4BD73
S1131CD8ECEFCDADF044010071FF61D3F0ADF42613
S1131CE8F0B818ADF004F5FF26E8BDF2ADF406F23D
S1131CF8BDF2A818EAF2168B99B6F0ADF0440000CC
S1131D08DFDBADEC04F7FFBDEC883FD1DD3C883E5A
S1131D18D1F4F061E8E4F0F4F1A82626F0BDF0A8C7
S1131D281C12ADEC23BDF2ADF046F271FF7177F3EE
S1131D3861D317FBF8FF61891CA81C14513099EF73
S1131D48DEC9EC894E30864EB81CFBF8FFADEC6159
S1131D58291CBDECA826BDF4ADEC46F471FF7177DF
S1131D68F561C319ADF426ECBDE8883ED1F4F06101
S1131D78E8E4F0F4F1ADE826F0BDE8EF04C9E800C2
S1131D880088C2D1DF2AB6E8ADE844000071FFDC60
S1131D981F51209800AEF804600116ABB802AEF8E3
S1131DA8045E0116AB1661FAFBF8FF617922EFD6DF
S1131DB8883ED1DD1D883E9800AEF804600116AB5C
S1131DC8B802AEF8045E0116AB1661FAFBF8FF61BF
S1131DD87922B6ECADEC44000071FFDC2AA81CA102
S1131DE8B818A81C168B9800AEF804600116ABB896
S1131DF802AEF8045E0116AB1661FAFBF8FF6179CE
S1131E0822A818B81CEFCB88C2D161F8ED5511B6D9
S1131E18E8ADE844000071FF61D8ED5511512098F0
S1131E2800AEF804600116ABB802AEF8045E011601
S1131E38AB1661FAFBF8FF617922EFD330754EEDEA
S1131E484014D4E961E8ED4C1CED111DF6B824F4F6
S1131E58E8300600B818ED1E16A822BDF010FE10D2
S1131E685461EFC4C2C061CFD761EFC161CF203CD8
S1131E78A842B82EA844B830AEF8043C00BDF0041B
S1131E88F2FFB800ADF004F6FFB802FD1940A8321D
S1131E98B800A834B802A836B804C9F40000A838B1
S1131EA8BDF0A83ABDF28DF49DF5A800B81EA802AD
S1131EB8B820A804B822A806B824ADF0B800ADF23A
S1131EC8B802ADF4B804B806511E9808FD0E3FA830
S1131ED81EB800A820B802A822B804ADF0B816AD00
S1131EE8F2B818ADF4B81AADF6B81CADF0B806AD32
S1131EF8F2B808ADF4B80AADF6B80CFDC33AADF0C3
S1131F08B80EADF2B810ADF4B812ADF6B814ADF021
S1131F18B826ADF2B828ADF4B82AADF6B82CA82680
S1131F28BDF0103C61EFC061CFD761EFC1C3C5619B
S1131F38CF20FE2016AEF8041E0116ABBDECAEF899
S1131F4804200116ABBDEAAEF804220116ABBDE8C5
S1131F58FAECABBDF044010061E3ED7D26FAEAAB8F
S1131F68BDF244010061E3ED8126ADF0440400DFD5
S1131F7821ADECBDF0ADF244040061E8ED8926EA38
S1131F88F0AA0261490261F8ED8926C9F08A4EED8A
S1131F988926ADF244040061F8ED8126440200DF8D
S1131FA83DADF044020061E8ED7D26EAE8ADF0B904
S1131FB8FAECAC02BA02AC04BA04AC06BA06AC0831
S1131FC8BA08AC0ABA0AAC0CBA0CFAEAAC02FAECD3
S1131FD812AC02615B08615A08BA02ED8526ADF0BD
S1131FE844020061F8ED8126FAECAC04DBF8FF78D2
S1131FF80001FAEAAC04BDF0F6B810F6B812F6B867
S113200814F6B816FAECAC06B810AC08B812AC0A58
S1132018B814AC0CB816F6B818F6B81AF6B81CF614
S1132028B81EFAEAAC06B818AC08B81AAC0AB81C58
S1132038AC0CB81EAEF804000114A926F0BDF2AD2C
S1132048F2FD5A3EDBF8FF781201443F0071FF614C
S1132058F3ED2923ADF244000071FF61E3EDBD21E6
S1132068A818B800A81AB802A81CB804A81EB8066C
S1132078AEF8041201168B9808FD413FADF0B8681C
S1132088ADF2B86AADF4B86CADF6B86EADF0B86040
S1132098A86AB862A86CB864ADF6B866F6B82AF649
S11320A8B82CF6B82EE6B828B800A82AB802B8049E
S11320B8B806FD0E3FADF0B870ADF2B872ADF4B825
S11320C874ADF6B876ADF0B800ADF2B802ADF4B8B8
S11320D804ADF6B80630FFFFB80830FFFFB80A3081
S11320E8FFFFB80C30FFFFB80EFDCD3DADF0B8785A
S11320F8ADF2B87AADF4B87CADF6B87EADF0B80000
S1132108A87AB802A87CB804ADF6B806A818B80826
S1132118A81AB80AA81CB80CA81EB80EFD613EADD2
S1132128F0B880ADF2B882ADF4B884ADF6B886F6EE
S1132138B842F6B844F6B846E6B840A880B800A84D
S113214882B802A884B804ADF6B806A82CB808B8B2
S11321580AB80CB80EFDC93E4AF001DF04A82CB831
S113216840A840B8F8A842B8FAA844B8FCA846B8A9
S1132178FEA8F8B800A8FAB802A844B804A846B853
S113218806A860B808A862B80AA864B80CA866B813
S11321980EFD953EADF0B888ADF2B88AADF4B88CB2
S11321A8ADF6B88EADF0B818ADF2B81AA88CB81C54
S11321B8ADF6ED5A2344000061F8ED5C23AEF80453
S11321C8000114AEF804120116A9610900B9A81097
S11321D8B800A812B802A814B804A816B806AEF82D
S11321E8041201168B9808FD413FADF0B890ADF28A
S11321F8B892ADF4B894ADF6B896ADF0B858A892C4
S1132208B85AA894B85CADF6B85EF6B84AF6B84CB5
S1132218F6B84EE6B848B800A84AB802B804B806F2
S1132228FD0E3FADF0B898ADF2B89AADF4B89CADD8
S1132238F6B89EADF0B800ADF2B802ADF4B804AD8E
S1132248F6B80630FFFFB80830FFFFB80A30FFFFC2
S1132258B80C30FFFFB80EFDCD3DADF0B8A0ADF21F
S1132268B8A2ADF4B8A4ADF6B8A6ADF0B800A8A26B
S1132278B802A8A4B804ADF6B806A810B808A812FD
S1132288B80AA814B80CA816B80EFD613EADF0B88B
S1132298A8ADF2B8AAADF4B8ACADF6B8AEF6B83A93
S11322A8F6B83CF6B83EE6B838A8A8B800A8AAB864
S11322B802A8ACB804ADF6B806A84CB808B80AB871
S11322C80CB80EFDC93E4AF001DF03F6B838A83849
S11322D8B8F0A83AB8F2A83CB8F4A83EB8F6A8F002
S11322E8B800A8F2B802A83CB804A83EB806A85892
S11322F8B808A85AB80AA85CB80CA85EB80EFD9528
S11323083EADF0B8B0ADF2B8B2ADF4B8B4ADF6B80D
S1132318B6ADF0B810ADF2B812ADF4B814ADF6EF2E
S113232823AEF804000114A946F071FF7177F16136
S1132338C316DBF8FFADF0780001F6B810F6B81252
S1132348A810B814B816EF0CF6B818F6B81AA818E6
S1132358B81CB81EFAECAC02BDF0FAEAAC0246F0BE
S113236861F8ED5525ADF0440000DD3FA818B8002C
S1132378A81AB802A81CB804A81EB806A810B80859
S1132388A812B80AA814B80CA816B80EFDFA3DADE0
S1132398F0B8B8ADF2B8BAADF4B8BCADF6B8BEADE5
S11323A8F0B820A8BAB822A8BCEF3DA810B800A875
S11323B812B802A814B804A816B806A818B808A829
S11323C81AB80AA81CB80CA81EB80EFDFA3DADF040
S11323D8B8C0ADF2B8C2ADF4B8C4ADF6B8C6ADF085
S11323E8B820A8C2B822A8C4B824ADF6B826A82034
S11323F8B800A822B802A824B804A826B806F6B8D3
S113240808F6B80AF6B80CF6B80EFDFE3EEAE8D4AB
S1132418F0DD1CF6BA02AEF804000116ABBA04A843
S113242820BA06A822BA08A824BA0AA826EF3FE6C2
S1132438BA02AEF804000116ABBA04A820B800A882
S113244822B802A824B804A826B806FD393EADF07F
S1132458B8C8ADF2B8CAADF4B8CCADF6B8CEADF0E4
S1132468EAE8BA06A8CABA08A8CCBA0AADF6BA0CF9
S1132478FAE8AC06B850AC08B852AC0AB854AC0C7C
S1132488B856A850B800A852B802A854B804A85618
S1132498B80630FFFFB80830FFFFB80A30FFFFB8AE
S11324A80C30FFFFB80EFDCD3DDBF8FFADF0780A28
S11324B801ADF2780C01ADF4780E01ADF678100197
S11324C8ADF0B800AEF8040C0116ABB802AEF804CF
S11324D80E0116ABB804ADF6B80630FEFFB80830E6
S11324E8FF0FB80EFDC93E4AF00161F3EDA925A816
S11324F850B800A852B802A854B804A856B806A8F8
S113250850B808A852B80AA854B80CA856B80EFD72
S1132518CD3DDBF8FFADF0780201ADF2780401ADF2
S1132528F4780601ADF6780801ADF0EAE8BA06AE2B
S1132538F804040116ABBA08AEF804060116ABBADF
S11325480AADF6BA0CFAE8618904ED7824EAE8AD34
S1132558F0BA02AEF804000116ABBA04A818B80021
S1132568A81AB802A81CB804A81EB806A810B80867
S1132578A812B80AA814B80CA816B80EFDCD3DAD1B
S1132588F0B8D0ADF2B8D2ADF4B8D4ADF6B8D6AD93
S1132598F0EAE8BA06ADF2BA08A8D4BA0AADF6BAAF
S11325A80CEAE8300300B9F6B830F6B832F6B834B5
S11325B8F6B836FAE8AC06B830AC08B832AC0AB8A3
S11325C834AC0CB836A830B800A832B802A834B86D
S11325D804A836B80630FFFFB80830FFFFB80A3041
S11325E8FFFFB80C30FF1FB80EFDC93E4AF0016169
S11325F8E3ED8526E6B808F6B80AF6B80CF6B80E80
S1132608FD613EADF0B8D8ADF2B8DAADF4B8DCADE2
S1132618F6B8DEE19808FD413FADF0B8E0ADF2B898
S1132628E2ADF4B8E4ADF6B8E6A8D8B800A8DAB8CC
S113263802A8DCB804A8DEB806A8E0B808A8E2B87E
S11326480AA8E4B80CADF6B80EFD953EADF0B8E8AE
S1132658ADF2B8EAADF4B8ECADF6B8EEEAE8ADF030
S1132668BA06ADF2BA08ADF4BA0AADF6BA0CFAE88D
S1132678617904EF08ADECEF06ADEAEF02ADE8BD11
S1132688F010FE101661EFC4C2C061CFD761EFC16C
S113269861CF2058A85EBDF0A860BDF2A862BDF461
S11326A8A864BDF6A866B80EA868B810A86AB812D7
S11326B8A86CB814ADF0B81EADF2B820ADF4B822C9
S11326C8ADF6B824A80EB826A810B828A812B82AB7
S11326D8A814B82CAEF8045800BDF004C6FFB8001E
S11326E8ADF004D6FFB802FDA047AEF8045800BD0B
S11326F8E804CEFFB800ADE804E4FFB802FDA04743
S1132708ADE8BDF004D6FFB800ADF004E4FFB802AC
S1132718ADF004F2FFB804FD321FADF0B800FD516E
S113272841ADF0B806ADF2B808ADF4B80AADF6B8E4
S11327380CADF0B816ADF2B818ADF4B81AADF6B8D9
S11327481CA816BDF0105861EFC061CFD761EFC166
S113275861CF2058A85EBDF0A860BDF2A862BDF4A0
S1132768A864BDF6A866B80EA868B810A86AB81216
S1132778A86CB814ADF0B81EADF2B820ADF4B82208
S1132788ADF6B824A80EB826A810B828A812B82AF6
S1132798A814B82CAEF8045800BDF204C6FFB8005B
S11327A8ADF204D6FFB802FDA047AEF8045800BD48
S11327B8E804CEFFB800ADE804E4FFB802FDA04782
S11327C8A83E7AF801B83EAEF8045800BDE804D62D
S11327D8FFB800ADE804E4FFB802ADE804F2FFB8BE
S11327E804FD321FADF0B800FD5141ADF0B806AD9F
S11327F8F2B808ADF4B80AADF6B80CADF0B816AD39
S1132808F2B818ADF4B81AADF6B81CA816BDF01095
S11328185861EFC061CFD761EFC161CF20FE20AC12
S1132828AEF804B00116ABBDF0AEF804B20116ABB5
S1132838BDF2AEF804B40116ABBDF4AEF804B601AB
S113284816ABBDF6AEF804B80116ABB8B8AEF804CA
S1132858BA0116ABB8BAAEF804BC0116ABB8BCAE34
S1132868F804BE0116ABB8BEDBF8FFADF078700112
S1132878ADF2787201ADF4787401ADF6787601A8FA
S1132888B8787801A8BA787A01A8BC787C01A8BE7F
S1132898787E01AEF804AA01BDF204C6FFB800AD03
S11328A8F204D6FFB802FDA047AEF804AA01BDE8B9
S11328B804CEFFB800ADE804E4FFB802FDA047AEBB
S11328C8F804800116ABBDF244010061C328AEF8D8
S11328D804820114AEF804900116A9614900C9F0F4
S11328E8000061E8E4F0DBF8FFADF0788201AEF8AF
S11328F8048001ED8731AEF8048E0116ABBDF044B7
S1132908010061C328AEF804820114AEF8049001F2
S113291816A9614900C9F0000061E8E4F0DBF8FF9A
S1132928ADF0789001AEF8048E01ED8731ADF24434
S11329380400DF0CADF044020061F8ED8B31EF8E3A
S1132948ADF0440400DF0CADF244020061F8ED8BF5
S113295831EFB2ADF244020061F8EDD628ADF0448F
S11329680200DDA1AEF804860116ABB830AEF80457
S1132978880116ABB832AEF8048A0116ABB834AE87
S1132988F8048C0116ABB836A830B800A832B802DF
S1132998A834B804A836B80651209808FD413FADBC
S11329A8F0B880ADF2B882ADF4B884ADF6B886ADAF
S11329B8F0B870ADF2B872ADF4B874ADF6B876AEDE
S11329C8F804940116ABB838AEF804960116ABB8FF
S11329D83AAEF804980116ABB83CAEF8049A01165E
S11329E8ABB83EA838B800A83AB802A83CB804A8BE
S11329F83EB806FD413FADF0B858ADF2B85AADF453
S1132A08B85CADF6B85EADF0B8A8ADF2B8AAADF44E
S1132A18B8ACADF6B8AE30FFFFB80830FFFFB80A5F
S1132A28F6B80CF6B80EFD613EADF0B840ADF2B89C
S1132A3842ADF4B844ADF6B846A830B800A832B8E8
S1132A4802A834B804A836B806FD613EADF0B8480B
S1132A58ADF2B84AADF4B84CADF6B84EADF0B80026
S1132A68ADF2B802ADF4B804ADF6B806A840B8089B
S1132A78A842B80AA844B80CA846B80EFD8D3FADC4
S1132A88F0B8C0ADF2B8C2ADF4B8C4ADF6B8C6ADCE
S1132A98F0B850A8C2B852ADF4B854ADF6B856A8B8
S1132AA8A8B808A8AAB80AA85CB80CA85EB80EFD0D
S1132AB88D3FADF0B888ADF2B88AADF4B88CADF6F8
S1132AC8B88EADF0B878A88AB87AADF4B87CADF60B
S1132AD8B87EA8A8B800A8AAB802A85CB804A85EDA
S1132AE8B806A870B808A872B80AA884B80CA8864A
S1132AF8B80EFD8D3FADF0B8C8ADF2B8CAADF4B8A4
S1132B08CCADF6B8CEADF0B8B0A8CAB8B2ADF4B88A
S1132B18B4ADF6B8B6A840B800A842B802A844B8FC
S1132B2804A846B806FD8D3FADF0B8D0ADF2B8D2D2
S1132B38ADF4B8D4ADF6B8D6ADF0B800A8D2B802A2
S1132B48ADF4B804ADF6B806A878B808A87AB80AF7
S1132B58A88CB80CA88EB80EFDCD3DADF0B890ADDC
S1132B68F2B892ADF4B894ADF6B896ADF0B828AD15
S1132B78F2B82AADF4B82CADF6B82EA828B800A837
S1132B882AB802ADF4B804ADF6B806FDC93EF6B8E5
S1132B9820F6B822F6D4F0DF08F6B826E6B824EF13
S1132BA805B824F6B826A828B800A82AB802A82C7C
S1132BB8B804A82EB80630FFFFB80830FFFFB80ADB
S1132BC8F6B80CF6B80EFD613EADF0B8D8ADF2B863
S1132BD8DAADF4B8DCADF6B8DEADF0B800ADF2B8F5
S1132BE802ADF4B804ADF6B80651209808FD0E3FBE
S1132BF8ADF0B8E0ADF2B8E2ADF4B8E4ADF6B8E6DD
S1132C08ADF0B800A8E2B802ADF4B804ADF6B80661
S1132C18A850B808A852B80AA854B80CA856B80EB0
S1132C28FDCD3DADF0B898ADF2B89AADF4B89CAD11
S1132C38F6B89EADF0B818ADF2B81AADF4B81CAD3C
S1132C48F6B81EA818B800A81AB802ADF4B804ADAE
S1132C58F6B806FDC93ED4F0DF3FA820B800A82284
S1132C68B802A824B804A826B806E6B808F6B80A2C
S1132C78F6B80CF6B80EFDCD3DADF0B8E8ADF2B837
S1132C88EAADF4B8ECADF6B8EEADF0B820A8EAB801
S1132C9822ADF4B824ADF6B826A828B800A82AB8F6
S1132CA802A82CB804A82EB80651209808FD413F64
S1132CB8ADF0B8F0ADF2B8F2ADF4B8F4ADF6B8F6DC
S1132CC8ADF0B800ADF2B802ADF4B804ADF6B8068C
S1132CD8A8B0B808A8B2B80AA8B4B80CA8B6B80E70
S1132CE8FDCD3DADF0B8F8ADF2B8FAADF4B8FCAD31
S1132CF8F6B8FEADF0B800ADF2B802ADF4B804AD64
S1132D08F6B806A820B808A822B80AA824B80CA8B7
S1132D1826B80EFDCD3DDBF8FFADF0780001ADF22D
S1132D28780201ADF4780401ADF6780601ADF0B887
S1132D3810AEF804020116ABB812ADF4B814ADF62F
S1132D48B816AEF804840114AEF804920116A96109
S1132D580900BDE8AEF804820114AEF80490011627
S1132D68A9614900C9F0000061E8E4F0ADF0789E7B
S1132D7801ADE8040400BDE8A810B800A812B80220
S1132D88A814B804A816B80630FFFFB80830FFFF27
S1132D98B80A30FFFFB80C30FF1FB80EFDC93E4A11
S1132DA8F00161E3EDD22FA810B800A812B802A868
S1132DB814B804A816B806E6B808F6B80AF6B80CA3
S1132DC8F6B80EFD613EDBF8FFADF0784001ADF2D8
S1132DD8784201ADF4784401ADF6784601ADF0B817
S1132DE800ADF2B802ADF4B804ADF6B806F6B8080A
S1132DF8FDC93E4AF00161F8ED902EA818B800A864
S1132E081AB802A81CB804A81EB806E19808FD411F
S1132E183FDBF8FFADF0783001ADF2783201ADF464
S1132E28783401ADF6783601ADF0786801ADF27802
S1132E386A01ADF4786C01ADF6786E01AEF80468F9
S1132E480116ABB800AEF8046A0116ABB802ADF4CB
S1132E58B804ADF6B806F6B808300080B80EFD958B
S1132E683EDBF8FFADF0784801ADF2784A01ADF4E5
S1132E78784C01ADF6784E01ADF0B818ADF2B81A39
S1132E88ADF4B81CADF6B81EA810B800A812B80264
S1132E98A814B804A816B806E19808FD413FDBF861
S1132EA8FFADF0785001ADF2785201ADF4785401D9
S1132EB8ADF6785601ADF0B810ADF2B812ADF4B86D
S1132EC814ADF6B816A6E8ED802DA810B800A8121F
S1132ED8B802A814B804A816B806A810B808A81206
S1132EE8B80AA814B80CA816B80EFDCD3DDBF8FF37
S1132EF8ADF0783801ADF2783A01ADF4783C01AD23
S1132F08F6783E01ADF0B810ADF2B812ADF4B814CD
S1132F18ADF6B816A818B800A81AB802A81CB804C0
S1132F28A81EB806F6B808F6B80AF6B80CF6B80E2D
S1132F38FDFE3ED4F0DF47A810B800A812B802AED0
S1132F48F8043C0116ABB804AEF8043E0116ABB85D
S1132F5806E6B808FD953EDBF8FFADF0785801ADFC
S1132F68F2785A01ADF4785C01ADF6785E01ADF003
S1132F78B810ADF2B812ADF4B814ADF6B816A81876
S1132F88B800A81AB802A81CB804A81EB806A8183D
S1132F98B808A81AB80AA81CB80CA81EB80EFDCD03
S1132FA83DDBF8FFADF0786001ADF2786201ADF475
S1132FB8786401ADF6786601ADF0B818ADF2B81AC8
S1132FC8ADF4B81CADF6B81EB6E8A810B800A8123F
S1132FD8B802A814B804A816B80630FFFFB8083019
S1132FE8FFFFB80A30FFFFB80C30FF0FB80EFDC959
S1132FF83E4AF00161E3EDD22EA810B868A812B8D1
S11330086AA814B86CA816B86EDBF8FFADE878A007
S11330180130FF00B808F6B80AF6B80CF6B80EFD89
S1133028613EDBF8FFADF0780801ADF2780A01AD36
S1133038F4780C01ADF6780E01ADF0B800ADF2B835
S113304802ADF4B804ADF6B806308000B808FDC97E
S11330583E4AF00161E8ED6531A868B800A86AB88D
S113306802A814B804A816B806300001B808FD610F
S11330783EDBF8FFADF0781001ADF2781201ADF443
S1133088781401ADF6781601ADF0B800ADF2B802C7
S1133098ADF4B804ADF6B806F6B808FDC93E4AF072
S11330A80161E8ED6531A818B800A81AB802A81C8F
S11330B8B804A81EB806FDC93E4AF00161F8ED65DA
S11330C831A868B800A86AB802A814B804A816B841
S11330D806308000B808FDCD3DADF0B8A0ADF2B81B
S11330E8A2ADF4B8A4ADF6B8A6DBF8FFADF078202D
S11330F801ADF2782201ADF4782401ADF678260109
S1133108AEF804200116ABB800AEF804220116ABE1
S1133118B802ADF4B804ADF6B8063000FFB808300C
S1133128FFFFB80A30FFFFB80C30FFFFB80EFD618F
S11331383EDBF8FFADF0781801ADF2781A01ADF472
S1133148781C01ADF6781E01ADF0B810AEF8041A7B
S11331580116ABB812ADF4B814ADF6B816A810DB66
S1133168F8FF78A201A81278A401A81478A601A8E7
S11331781678A801300300789C01AEF8049C01BDC0
S1133188F0EF04C9F08A4EADF0B800FD5141ADF03E
S1133198B860ADF2B862ADF4B864ADF6B866DBF801
S11331A8FFADF0782801ADF2782A01ADF4782C014E
S11331B8ADF6782E01AEF804280116ABBDF0AEF8D2
S11331C8042A0116ABBDF210FE10AC61EFC061CF4A
S11331D8D761EFC161CF20CCA8D2BDF0A8D4BDF28D
S11331E8A8D6BDF4A8D8BDF6A8DAB848A8DCB84A69
S11331F8A8DEB84CA8E0BDE8B84EADF0B8A0ADF272
S1133208B8A2ADF4B8A4ADF6B8A6A848B8A8A84A18
S1133218B8AAA84CB8ACADE8B8AEAEF804CC00BDBA
S1133228F004D4FFB800ADF004E4FFB802FDA047F1
S1133238AEF804CC00BDF204DCFFB800ADF204F231
S1133248FFB802FDA047A8B0BDF444010061E3ED56
S1133258EE35A8BEBDF244010061E3EDF535A8B230
S113326812A8C0617B08617A08B8B2ADF4440400BE
S1133278DD05440200DF0CADF446F261E8EDEE35FD
S1133288EDFE35ADF2440400DF12F6B8B6F6B8B870
S1133298F6B8BAF6B8BCF6B8B4EDEE35440200DFB9
S11332A808300400B8B0EDEE35A8C212A8B423BDA6
S11332B8E8B8B4A8B6B810A8B8B812A8BAB814A888
S11332C8BCB816A8C4B820A8C6B822A8C8B824A8E8
S11332D8CAB826A810B800A812B802A814B804A836
S11332E816B806A820B808A822B80AA824B80CA8B2
S11332F826B80EFDC93ED4F0DF38A810B808A812C5
S1133308B80AA814B80CA816B80EFDCD3DADF0B88F
S113331850ADF2B852ADF4B854ADF6B856ADF0B8F5
S113332810ADF2B812ADF4B814A856B816ADE8B199
S1133338B8B4C9E83D00F6B828F6B82AF6B82C306F
S11333480010B82EF6B818F6B81AF6B81CF6B81E57
S1133358A810B800A812B802A814B804A816B80689
S1133368A820B808A822B80AA824B80CA826B80E19
S1133378FDC93ED4F061F8ED0834A828B800A82A9D
S1133388B802A82CB804A82EB806A818B808A81A11
S1133398B80AA81CB80CA81EB80EFD953EADF0B826
S11333A888ADF2B88AADF4B88CADF6B88EADF0B885
S11333B818A88AB81AADF4B81CA88EB81EA810B8F4
S11333C800A812B802A814B804A816B806A820B809
S11333D808A822B80AA824B80CA826B80EFDFA3DF5
S11333E8ADF0B890ADF2B892ADF4B894ADF6B89625
S11333F8ADF0B810A892B812ADF4B814A896B816DF
S1133408A828B800A82AB802A82CB804A82EB80678
S1133418E19808FD413FADF0B898ADF2B89AADF423
S1133428B89CADF6B89EADF0B828ADF2B82AADF4A4
S1133438B82CA89EB82EA810B800A812B802A814D0
S1133448B804A816B806A810B808A812B80AA81488
S1133458B80CA816B80EFDCD3DADF0B880ADF2B8E5
S113346882ADF4B884ADF6B886ADF0B810ADF2B854
S113347812ADF4B814A886B816B6E8ADE84400004E
S113348861E8ED5833A818BDF2B830A81ABDF6B8EB
S113349832A81CBDE8B834A81EBDF0B836ADF2B8E1
S11334A800ADF6B802ADE8B804ADF0B80630FF00D8
S11334B8B808F6B80AF6B80CF6B80EFD613EADF0D9
S11334C8B858ADF2B85AADF4B85CADF6B85EADF024
S11334D8B800A85AB802ADF4B804A85EB80630809B
S11334E800B808FDC93E4AF00161E8EDDE35A818C8
S11334F8B800A81AB802A81CB804A81EB806300058
S113350801B808FD613EADF0B860ADF2B862ADF443
S1133518B864ADF6B866ADF0B800A862B802ADF408
S1133528B804A866B806F6B808FDC93E4AF00161B1
S1133538E8EDDE35A810B800A812B802A884B804CB
S1133548A886B806FDC93E4AF00161F8EDDE35A843
S113355818B800A81AB802A81CB804A81EB80630DF
S11335688000B808FDCD3DADF0B840ADF2B842AD2D
S1133578F4B844ADF6B846ADF0BDF2B870A842BD93
S1133588F6B872ADF4BDE8B874A846BDF0B876AD27
S1133598F2B800ADF6B802ADE8B804ADF0B806303C
S11335A800FFB80830FFFFB80A30FFFFB80C30FF3F
S11335B8FFB80EFD613EADF0B868ADF2B86AADF47F
S11335C8B86CADF6B86EADF0B830A86AB832ADF4E0
S11335D8B834A86EB836A830B8B6A832B8B8A83483
S11335E8B8BAA836B8BCAEF804B000EF05AEF80413
S11335F8BE00BDF0EF04C9F08A4EADF0B800FD512D
S113360841ADF0B838ADF2B83AADF4B83CADF6B85F
S11336183EADF0BDE8B878ADF2B87AADF4B87CAD9B
S1133628F6B87EADE8BDF0A87ABDF210CC61EFC063
S113363861CFD761EFC161CF2038A83EBDF0A84063
S1133648BDF2A842BDF4A844BDF6A846B804A848EB
S1133658B806A84AB808A84CB80AADF0B80CADF238
S1133668B80EADF4B810ADF6B812A804B814A8068C
S1133678B816A808B818A80AB81AAEF8043800BDCD
S1133688F004D4FFB800ADF004E4FFB802FDA0478D
S1133698AEF8043800BDE804DCFFB800ADE804F275
S11336A8FFB802FDA047A81C44010061D31DA82A45
S11336B844010061D315ADE8BDF004E4FFB800ADE2
S11336C8F004F2FFB802FD774AEF02E4F010386123
S11336D8EFC061CFD761EFC161CF2038A83EBDF0FC
S11336E8A840BDF2A842BDF4A844BDF6A846B80453
S11336F8A848B806A84AB808A84CB80AADF0B80C47
S1133708ADF2B80EADF4B810ADF6B812A804B814FA
S1133718A806B816A808B818A80AB81AAEF804383B
S113372800BDF004D4FFB800ADF004E4FFB802FD16
S1133738A047AEF8043800BDE804DCFFB800ADE8E3
S113374804F2FFB802FDA047A81C44010061D31D80
S1133758A82A44010061D315ADE8BDF004E4FFB81C
S113376800ADF004F2FFB802FD774AEF03CDF0FF95
S1133778103861EFC061CFD761EFC161CF2038A89D
S11337883EBDF0A840BDF2A842BDF4A844BDF6A8C9
S113379846B804A848B806A84AB808A84CB80AAD58
S11337A8F0B80CADF2B80EADF4B810ADF6B812A876
S11337B804B814A806B816A808B818A80AB81AAEFF
S11337C8F8043800BDF004D4FFB800ADF004E4FFF9
S11337D8B802FDA047AEF8043800BDE804DCFFB821
S11337E800ADE804F2FFB802FDA047A81C4401009C
S11337F861D31DA82A44010061D315ADE8BDF004C6
S1133808E4FFB800ADF004F2FFB802FD774AEF0216
S1133818E4F0103861EFC061CFD761EFC161CF2008
S113382838A83EBDF0A840BDF2A842BDF4A844BDE6
S1133838F6A846B804A848B806A84AB808A84CB8D0
S11338480AADF0B80CADF2B80EADF4B810ADF6B8D8
S113385812A804B814A806B816A808B818A80AB86C
S11338681AAEF8043800BDF004D4FFB800ADF00473
S1133878E4FFB802FDA047AEF8043800BDE804DC54
S1133888FFB800ADE804F2FFB802FDA047A81C4445
S1133898010061D31DA82A44010061D315ADE8BD18
S11338A8F004E4FFB800ADF004F2FFB802FD774A73
S11338B8EF02E4F0103861EFC061CFD761EFC1C304
S11338C8C561CF2038A842BDF0A844BDF23003003A
S11338D8B82AADF2317A9DF4F6BDF69DF58DF49DC6
S11338E8E8318EB82CADF2440000ADF061F8440024
S11338F800DF08300200B82AED8E39D4E8DD20ADA7
S1133908F2440080ADF061F844000061F8EDAB3991
S1133918ADF212ADF0FD2B3EBDEA13BDECEF08ADE0
S1133928F0BDEAADF2BDECADEAB800ADECB802FD0D
S1133938583CADF0041D00BDE8F6B816F6B818AD4D
S1133948EAB812ADECB814F19816981798189819A3
S1133958A816B804A818B8068DE89808FD0E3FAD57
S1133968F0B81AADF2B81CADF4B81EADF6B820AD77
S1133978F0B830ADF2B832ADF4B834ADF6B836308C
S11339883C0026E8B82EAEF804380004F2FFB8006C
S1133998FD5141ADF0B80AADF2B80CADF4B80EADB6
S11339A8F6EF0CF6B80AF6B80CF6B80E30E0C1B863
S11339B810A80AB822A80CB824A80EB826A810B8CB
S11339C828A822BDF0A824BDF2A80EBDF4A810BDF5
S11339D8F6103861EFC4C2C061CFD7202CA830BD1F
S11339E8F0A832BDF2A834BDF4A836BDF6ADF0B8DF
S11339F816ADF2B818ADF4B81AADF6B81CAEF804A2
S1133A082C00BDF004EAFFB800ADF004F2FFB802E0
S1133A18FDA047A81E44020061E3EDAA3A4404004D
S1133A28DF2CF6B80CA820440000C9F0000061E8B7
S1133A38E4F0ADF0B80AF1980C980DA80A04FFFF59
S1133A48B80AA80C61D8A104FF7FB80CEF62A822B9
S1133A58BDF044000071FFDC49441E0071FF61C3DE
S1133A68C1A824B800A826B802A828B804A82AB867
S1133A7806F8F0513C612A9808FD413FADF0B80EB4
S1133A88ADF2B810ADF4B812ADF6B814A8204400DD
S1133A9800DD15A81012A80EFD2B3EB80A13B80CA9
S1133AA8EF0EF6B80AF6EF06A80EB80AA810B80C76
S1133AB8A80ABDF0A80CBDF2102CD72020A82ABD56
S1133AC8F0A82CBDF2A82EBDF4A830BDF6A824B8E1
S1133AD812A826B814A828B816ADF0B818ADF2B8CC
S1133AE81AADF4B81CADF6B81EAEF804200004F202
S1133AF8FFB800FD5141ADF0B802ADF2B804ADF421
S1133B08B806ADF6B808ADF0B80AADF2B80CADF425
S1133B18B80EADF6B810A80ABDF01020D7CFE8004B
S1133B28C0BEF013BEF6F6BEF2BEF4CFE800C18FF5
S1133B38E8003103FAAFE00012AEF0D7C554003103
S1133B48750514F62554033174FB08C1F62312C015
S1133B587AFC02FEC7FF3104FC05C1F62312C0310A
S1133B6814FC0314F625C4D7CFE800C0BEF013BE76
S1133B78F2A804BEF6A806BEF4CFE800C18FE80098
S1133B883103FAAEF212AEF0D7CFE800C0BEF0139C
S1133B98BEF2A804BEF6A806BEF4CFE800C18FE8BA
S1133BA8003103FAAFE20012AFE000D7C714A80847
S1133BB8317515A80616F627C1A80A16F661D8B1F4
S1133BC827C6C1C75601EF06C1A808C156003174FB
S1133BD8FB0CF62514F661D8B123127AFE0115FE02
S1133BE886FF10043104FE0B14F62514F661D8B1CF
S1133BF8231215C6D7C714A808317513A80616F6D4
S1133C0827C1A80A16F661D8B127C6C1C7EF04C1EF
S1133C18A808C156003174FB0AF62514F661D8B118
S1133C2823128615FE62FF10043104FE0B14F625D8
S1133C3814F661D8B1231215C6D7A804C9F0100028
S1133C48440000DD0A54FF84311DDEFB649DF0D777
S1133C58A806440000DFE5A804FD443CADF00410C8
S1133C6800BDF0D7A804C9F01000440000DD0A54D0
S1133C78FF84311EDEFB649DF0D7A804440000DFF6
S1133C88E5A806FD6E3CADF0041000BDF0D7A8040D
S1133C98C9F00000440000DD0A540084311EDEFB34
S1133CA8649DF0D7A804440000DFE5A8064400009A
S1133CB8DD08FD983CADF0041000BDF0D7718C719F
S1133CC89F71AF71BF71CF71DF71EF71FFF6DE01C4
S1133CD8A1BDF0D7A8046178EFE3A804617873A8BC
S1133CE8066178617BEFD65502EF045504EF00AE08
S1133CF8F804040016F1618B8B618B540831181C8D
S1133D080094DFF9A795DFEE70F1BDF0D72004A881
S1133D180EB802A80CB800FD583C4AF020DF0EA8E3
S1133D280AB802A808B800FD583C0AF0201004D7C5
S1133D382004A80AB802A808B800FD823C4AF0206A
S1133D48DF0EA80EB802A80CB800FD823C0AF020C9
S1133D581004D72004A80AB802A808B800FDAC3C8F
S1133D68D4F0DF12A80EB802A80CB800FDAC3CD4FD
S1133D78F061E80AF0201004D72004A808B800A8C5
S1133D880AB802FDF33C8DF09DF2A80CB800A80E09
S1133D98B802FDF33C8DF20BF09DF01004D720041B
S1133DA8A808B800A80AB802FDE23C8DF09DF2A864
S1133DB80CB800A80EB802FDE23C8DF20BF05C01D1
S1133DC89DF01004D7FBF8FFAC0461090CBDF08C1E
S1133DD8061E0E9DF28C071E0F9DF38C081E109D67
S1133DE8F48C091E119DF5AC0A61D8A1610912BDB4
S1133DF8F6D7FBF8FFAC0461290CBDF08C063E0E27
S1133E089DF28C073E0F9DF38C083E109DF48C099F
S1133E183E119DF5AC0A61D8B1612912BDF6D731BE
S1133E2874FB0DC716F62716F661D8B1231217C608
S1133E38D72010A814B808A816B80AA818B80CA847
S1133E481AB80EF6B800B802B804B806FDFA3D1060
S1133E5810D731750312F623D7FBF8FF8C045E0CD8
S1133E689DF08C055E0D9DF18C065E0E9DF28C070F
S1133E785E0F9DF38C085E109DF48C095E119DF510
S1133E888C0A5E129DF68C0B5E139DF7D7FBF8FF28
S1133E988C046E0C9DF08C056E0D9DF18C066E0ED7
S1133EA89DF28C076E0F9DF38C086E109DF48C099F
S1133EB86E119DF58C0A6E129DF68C0B6E139DF790
S1133EC8D7FBF8FFAC0A614912E6BDF061C321DFF4
S1133ED822AC0861491061C317DF18AC0661490EAA
S1133EE861C30DDF0EAC0461490C61C303DF04D761
S1133EF8A6F0D7B6F0D7FBF8FFAC1212AC0A4371A0
S1133F08FF7177FBEFC3A804BDF0A806BDF2A808AB
S1133F18BDF4A80ABDF6880C5C3FDD1C74ADF03115
S1133F281DBDF0ADF261EEBDF2ADF461EEBDF4ADD0
S1133F38F661EEBDF694DFE5D7A804BDF0A806BD8A
S1133F48F2A808BDF4A80ABDF6880C5C3FDD287405
S1133F58ADF6311EBDF6ADF461FB0861FB08BDF496
S1133F68ADF261FB0861FB08BDF2ADF061FB0861CD
S1133F78FB08BDF094DFD9D7CFE80000BEF013BE2C
S1133F88F200AEF6D7A80412A80CFDFB4BBDF01343
S1133F98BDF2A80612A80EFDFB4BBDF4FAFAA8045C
S1133FA812A80EFDFB4BFE5800A80612A80CFDFB38
S1133FB84BFE4D00A80412A810FDFB4BFE3700A8C9
S1133FC80812A80CFDFB4BFE2C00A80412A812FD35
S1133FD8803F0716A80A12A80CFD803F0716A806FA
S1133FE812A810FD803F0716A80812A80EFD803FEE
S1133FF8071617BDF6D706F4BDF41361D8A1071642
S1134008D706F2BDF21361D8A106F4BDF461D8A7AE
S1134018D761EFC1C361CFA808BDF4A80ABDF0AD4C
S1134028F416ABBDE88C025C7F9DEAF4EBEAF48AF3
S113403802317A9DF28A0361016BF29DF2F4F38CEA
S113404803317AEAF0318EBA02ADF2440000DF623D
S1134058ADEA440000ADE861F8440000DF08ADF0C3
S113406814300200EF65EAF03082FFBA045407AD59
S1134078EA12ADE8FDE94BBDE813BDEAADF0143032
S11340880300B9C9F282FFADE801BDE8ADEA61EE0B
S1134098BDEAB6F2ADEA44FF3FADE861F844FFFF7C
S11340A861D3E4EAF0ADF2BA04ADE8BA06ADEAEDDC
S11340B8484144FF00DF59ADEA440000ADE861F827
S11340C8440000DF09ADF014300400B9EF74F6BD04
S11340D8F4ADEA5AF840F1BDF6ADF6440000ADF48B
S11340E861F8440000DD06ADF014E6EF04ADF01409
S11340F8F6B9ADE8BDE8ADEA5AF8BFBDEAFAF0543E
S113410807ADEA12ADE8FDE94BBC0613BC08EF3273
S1134118DAF00481FF780400ADF014300300B954D8
S113412807ADEA12ADE8FDE94BBDE813BDEAADE819
S1134138BDF2ADEA6C40BDF4EAF0ADF2BA06ADF4F6
S1134148BA0861EFC2C061CFD761EFC1C361CF20A4
S1134158FE2002AEF804080116ABBDE8F6B810F666
S1134168B812F6B814F6B816FAE8AC06B810AC08E3
S1134178B812AC0AB814AC0CB816AC02BDEAAB441D
S1134188010061F3ED5542A810B800A812B802A8BE
S113419814B804A816B80651089808FD413FADF0B4
S11341A8B838ADF2B83AADF4B83CADF6B83EADF0B7
S11341B8B8E0ADF2B8E2ADF4B8E4ADF6B8E6A8E01C
S11341C8B800ADF2B802ADF4B804ADF6B80630FFE5
S11341D8FFB80830FFFFB80A30FFFFB80C300700FB
S11341E8B80EFD613EADF0B840ADF2B842ADF4B8DA
S11341F844ADF6B846ADF0B8E8ADF2B8EAADF4B8F7
S1134208ECADF6B8EEA8E8B800ADF2B802ADF4B873
S113421804ADF6B806F6B808F6B80AF6B80C3008CD
S113422800B80EFD953EADF0B850ADF2B852ADF4FD
S1134238B854ADF6B856ADF0B810ADF2B812ADF446
S1134248B814ADF6B816C9E8FF07ED0447440400EE
S113425861F8EDF44644020061F8EDE246A810B8AE
S113426800A812B802A814B804A816B806F6B80824
S1134278F6B80AF6B80CF6B80EFDC93E4AF0016164
S1134288F8EDEE46FAE8AC04BDE84402FC71FF71AF
S1134298C061C8ED44453002FC26E844380071FF8B
S11342A861F3EDEB43609808FD413FADF0B858ADBC
S11342B8F2B85AADF4B85CADF6B85EADF0B848AD36
S11342C8F2B84AADF4B84CADF6B84EF6B822F6B822
S11342D824F6B826E6B820B800A822B802B804B86C
S11342E806FD0E3FADF0B860ADF2B862ADF4B86447
S11342F8ADF6B866ADF0B800ADF2B802ADF4B804E6
S1134308ADF6B80630FFFFB80830FFFFB80A30FF33
S1134318FFB80C30FFFFB80EFDCD3DADF0B868AD69
S1134328F2B86AADF4B86CADF6B86EADF0B800ADDD
S1134338F2B802ADF4B804ADF6B806A810B808A8E7
S113434812B80AA814B80CA816B80EFD613EADF050
S1134358B870ADF2B872ADF4B874ADF6B876F6B814
S113436832F6B834F6B836E6B830A870B800ADF20C
S1134378B802ADF4B804ADF6B806A824B808B80A6B
S1134388B80CB80EFDC93E4AF001DF04A824B830C1
S1134398A830B8D8A832B8DAA834B8DCA836B8DE59
S11343A8A8D8B800A8DAB802A834B804A836B80659
S11343B8A848B808A84AB80AA84CB80CA84EB80E19
S11343C8FD953EADF0B878ADF2B87AADF4B87CADF1
S11343D8F6B87EADF0B818ADF2B81AADF4B81CADA5
S11343E8F6EF0AF6B818F6B81AF6B81CF6B81EA806
S11343F818B800A81AB802A81CB804A81EB8063031
S1134408FF00B808F6B80AF6B80CF6B80EFD613E17
S1134418ADF0B880ADF2B882ADF4B884ADF6B88624
S1134428ADF0B800ADF2B802ADF4B804ADF6B80614
S1134438308000B808FDC93EA818B800A81AB80208
S1134448A81CB804A81EB8064AF001DF5D300001B4
S1134458B808FD613EADF0B888ADF2B88AADF4B8DD
S11344688CADF6B88EADF0B800ADF2B802ADF4B8C4
S113447804ADF6B806F6B808FDC93E4AF001DD5B9E
S1134488A818B800A81AB802A81CB804A81EB80628
S1134498308000B808FDCD3DADF0B890ADF2B892CB
S11344A8ADF4B894ADF6B896EF21307F00B808F6AD
S11344B8B80AF6B80CF6B80EFDCD3DADF0B898AD17
S11344C8F2B89AADF4B89CADF6B89EADF0B818AD94
S11344D8F2B81AADF4B81CADF6B81EE6B820A818A0
S11344E8B800A81AB802A81CB804A81EB80630FF59
S11344F8FFB80830FFFFB80A30FFFFB80C30FF0FD1
S1134508B80EFDC93E4AF00161C303F6B820A820DD
S1134518BDE8A818B800A81AB802A81CB804A81EB0
S1134528B80651089808FD413FADF0B8A0ADF2B8FF
S1134538A2ADF4B8A4ADF6B8A6EDD24644FF037113
S1134548FF61F3EDF446A810B800A812B802A81445
S1134558B804A816B80630FF00B808F6B80AF6B8C2
S11345680CF6B80EFD613EADF0B8A8ADF2B8AAAD30
S1134578F4B8ACADF6B8AEADF0B800ADF2B802AD73
S1134588F4B804ADF6B806308000B808FDC93EA8F2
S113459810B800A812B802A814B804A816B8064A95
S11345A8F001DF5D300001B808FD613EADF0B8B040
S11345B8ADF2B8B2ADF4B8B4ADF6B8B6ADF0B80073
S11345C8ADF2B802ADF4B804ADF6B806F6B808FD15
S11345D8C93E4AF001DD5BA810B800A812B802A8C9
S11345E814B804A816B806308000B808FDCD3DAD4F
S11345F8F0B8B8ADF2B8BAADF4B8BCADF6B8BEEF21
S113460821307F00B808F6B80AF6B80CF6B80EFDE3
S1134618CD3DADF0B8C0ADF2B8C2ADF4B8C4ADF696
S1134628B8C6ADF0B810ADF2B812ADF4B814ADF622
S1134638B816A810B800A812B802A814B804A81686
S1134648B80630FFFFB80830FFFFB80A30FFFFB8DC
S11346580C30FF1FB80EFDC93E4AF00161C307AD17
S1134668E804FF03EF3BA810B800A812B802A81486
S1134678B804A816B806E19808FD413FADF0B8C8DB
S1134688ADF2B8CAADF4B8CCADF6B8CEADF0B8104A
S1134698ADF2B812ADF4B814ADF6B816ADE804002E
S11346A804BDE8A810B800A812B802A814B804A851
S11346B816B80651089808FD413FADF0B8D0ADF2E0
S11346C8B8D2ADF4B8D4ADF6B8D6ADF0B810ADF2F2
S11346D8B812ADF4B814ADF6EF20C9E80000ADE89F
S11346E8B810B812EF12C9E80000EF10C9E8FF07C4
S11346F8F6B810F6B812A810B814B816F6B82E887A
S1134708109828881198298812982A8813982B8831
S113471814982C8815982D882E9DF188165C0F5AAC
S1134728F1F06BF19DF18DF15C0F708DE85C0F3148
S1134738496168982E8DE8314A9DF0882F5CF070A5
S11347488DF05C0F61685C8F708DE95C073149619D
S1134758689DF17104EA7171F18DF1982FA828B858
S1134768F0A82AB8F2A82CB8F4A82EB8F6A8F0B87D
S1134778F8A8F2B8FAA82CB8FCA82EB8FEA8F8BD78
S1134788F0A8FABDF2A82CBDF4A82EBDF610FE10B0
S11347980261EFC2C061CFD761EFC1C361CF2060AE
S11347A8A868BDF0A86ABDE8ADF0168B98108C0116
S11347B898118C0298128C0398138C0498148C0505
S11347C898158C065C0F9816F19817A810B820A8AD
S11347D812B822A814B824A816B826EAF08A063112
S11347E84A9DF48A0731496BF49DF28C07311931DB
S11347F85A9DF38C07317AEAE8318EBA02ADF24455
S1134808000061E8ED0A49A820B800A822B802A867
S113481814B804A816B806F6B808F6B80AF6B80C18
S1134828F6B80EFDC93EEAE84AF001DF0630020098
S1134838ED3B493002FCBA04A820B800A822B8020B
S1134848A824B804A826B80651089808FD0E3FAD58
S1134858F0B828ADF2B82AADF4B82CADF6B82EAD40
S1134868F0B818ADF2B81AADF4B81CADF6B81EEA33
S1134878E8300300B9C9EA02FCA818B800A81AB8B5
S113488802A81CB804A81EB806A818B808A81AB81C
S11348980AA81CB80CA81EB80EFDCD3DADF0B83062
S11348A8ADF2B832ADF4B834ADF6B836ADF0B818E8
S11348B8ADF2B81AADF4B81CADF6B81EB6EAA8182D
S11348C8B800A81AB802ADF4B804ADF6B80630FFBB
S11348D8FFB80830FFFFB80A30FFFFB80C30FF0FED
S11348E8B80EFDC93E4AF00161D38EEAE8ADEABAD2
S11348F804A818BA06A81ABA08A834BA0AA836ED39
S11349086C4A44FF0761E8EDF649A820B800A822DC
S1134918B802A814B804A816B806F6B808F6B80A6F
S1134928F6B80CF6B80EFDC93E4AF001DF09EAE80C
S1134938300400B9ED6E4AA810B800A812B802A84D
S113494814B804A816B806F6B808F6B80AF6B80CE7
S1134958300800B80EFD613EADF0B838ADF2B83A93
S1134968ADF4B83CADF6B83EADF0B800ADF2B8025F
S1134978ADF4B804ADF6B806F6B80EFDC93E4AF073
S113498801F4F061E8E4F0EAE88DF0318EB9A8208A
S1134998B800A822B802A814B804A816B80630FFAC
S11349A8FFB80830FFFFB80A30FFFFB80C30F7FF34
S11349B8B80EFD613EADF0B840ADF2B842ADF4B802
S11349C844ADF6B846ADF0B800ADF2B802ADF4B8EF
S11349D804ADF6B80651089808FD0E3FADF0B84886
S11349E8ADF2B84AADF4B84CADF6B84EEF66DAE8B5
S11349F80401FC780400EAE8300300B9A820B800F0
S1134A08A822B802A814B804A816B8065108980829
S1134A18FD0E3FADF0B850ADF2B852ADF4B854AD98
S1134A28F6B856ADF0B800ADF2B802ADF4B804ADBE
S1134A38F6B806F6B808F6B80AF6B80C300010B896
S1134A480EFD953EADF0B858ADF2B85AADF4B85C69
S1134A58ADF6B85EEAE8ADF0BA06ADF2BA08ADF460
S1134A68BA0AADF6BA0C106061EFC2C061CFD76163
S1134A78EFC161CF2020A826BDF2A828BDF0ADF271
S1134A8816ABBDF644010061E3EDD24BADF016ABB5
S1134A98BDF444010061E3EDD24BADF6440400DFFC
S1134AA813ADF4440400DF21EAF0FAF2AA02612902
S1134AB802EDDB4BADF4440400DD2AADF6440200FC
S1134AC8DD19ADF4440200DF30E6B810EAF2AA02B8
S1134AD844000061F8EDDD4BEDD84BADF444020021
S1134AE861F8EDD54B30FFFFB810EAF0AA02440094
S1134AF80061F8EDDD4BEDD24BFAF2AC02BDE8FAF9
S1134B08F0AC0246E861E8ED9B4BFAF2AC04BDF662
S1134B18FAF0AC04BDF4ADF646F471FF7177F561B3
S1134B28C37146F471FF7177F561D8EDCB4BF6B8D4
S1134B3810F6B812F6B814F6B816FAF2AC06B810AD
S1134B48AC08B812AC0AB814AC0CB816F6B818F617
S1134B58B81AF6B81CF6B81EFAF0AC06B818AC08C1
S1134B68B81AAC0AB81CAC0CB81EA810B800A81225
S1134B78B802A814B804A816B806A818B808A81A39
S1134B88B80AA81CB80CA81EB80EFDC93E4AF00104
S1134B9861D309ADE8440000DD30EF34A810B80053
S1134BA8A812B802A814B804A816B806A818B80811
S1134BB8A81AB80AA81CB80CA81EB80EFDC93ED479
S1134BC8F0DF0AADE8440000DD06E6EF06F6EF0381
S1134BD830FFFFB810A810BDF0102061EFC061CFFE
S1134BE8D7D4FCDD07311D61FE94DFF9D7CFE80087
S1134BF808EF04CFE80000BEF013BEF200AEF412D2
S1134C08AEF6D7CFE80000BEF033BEF271FCAEF4C6
S10B4C1861D82312AEF6D700A7
S1134C204F5774696D65722D25640D0A004F572026
S1134C30646174612D25780D0A00526573657420D2
S1134C4072656365697665642054657374696E671B
S1134C50204D4B3920756E697420696E70757473BC
S1134C602E2E2E2E0D0A0054657374696E67204D26
S1134C704B3920756E6974206F7574707574732E5A
S1134C802E2E2E0D0A005465737420636F6D706CA4
S1134C906574650D0A0049474E207472696767653B
S1134CA072206661756C74790D0A0050616E6963D7
S1134CB02074726967676572206661756C74790D1A
S1134CC00A00496E70757431207472696767657281
S1134CD0206661756C74790D0A00496E70757432C2
S1134CE02074726967676572206661756C74790DEA
S1134CF00A00496E7075743320747269676765724F
S1134D00206661756C74790D0A0052504D207472DE
S1134D106967676572206661756C74790D0A00496C
S1134D20474E2064656661756C74206661756C74A9
S1134D30790D0A0050616E69632064656661756C63
S1134D4074206661756C74790D0A00496E7075740F
S1134D50312064656661756C74206661756C747964
S1134D600D0A00496E707574322064656661756C55
S1134D7074206661756C74790D0A00496E707574DF
S1134D80332064656661756C74206661756C747932
S1134D900D0A0052504D2064656661756C7420667E
S1134DA061756C74790D0A004F75747075744120C7
S1134DB064656661756C74206661756C74790D0A3E
S1134DC000546167204C45442064656661756C74C9
S1134DD0206661756C74790D0A00496D6D6F6220EF
S1134DE064656661756C74206661756C74790D0A0E
S1134DF000496D6D6F622074726967676572206621
S1134E0061756C74790D0A004F7574707574412066
S1134E1074726967676572206661756C74790D0ACE
S1134E2000546167204C4544207472696767657259
S1134E30206661756C74790D0A00556E6974205290
S1134E40657365742121210D0A0074696D65722DE5
S1134E5025640D0A00286E756C6C20706F696E7481
S1134E6065722900303132333435363738394142AE
S1134E7043444546003031323334353637383961AE
S1134E806263646566003F3F3F000000000000006D
S10B4E90000000000000000016
S903105399
